:020000040000FA
:060000000A128A11F82F1C
:100F660007308316031381000B1DBA2FBB2FC12F29
:100F76000130F0070318F10A0030F1070B111030A9
:100F860070067104031DC82FC92FB72FF001F10198
:100F960008008312031387010130831603138700A9
:100FA600831203138501831603138501831203132A
:100FB60086018316031386018316031788018901A8
:100FC600FF308312031386000A128A11B3270A120E
:100FD6008A118312031386010A128A11B3270A1291
:100FE6008A11E32F0A128A110028F001F101F20199
:0A0FF600F30183010A128A11CC2FC7
:00000001FF
